{
  "abi": [
    {
      "inputs": [],
      "stateMutability": "nonpayable",
      "type": "constructor"
    },
    {
      "anonymous": false,
      "inputs": [
        {
          "indexed": true,
          "internalType": "address",
          "name": "owner",
          "type": "address"
        },
        {
          "indexed": true,
          "internalType": "address",
          "name": "approved",
          "type": "address"
        },
        {
          "indexed": true,
          "internalType": "uint256",
          "name": "tokenId",
          "type": "uint256"
        }
      ],
      "name": "Approval",
      "type": "event"
    },
    {
      "anonymous": false,
      "inputs": [
        {
          "indexed": true,
          "internalType": "address",
          "name": "owner",
          "type": "address"
        },
        {
          "indexed": true,
          "internalType": "address",
          "name": "operator",
          "type": "address"
        },
        {
          "indexed": false,
          "internalType": "bool",
          "name": "approved",
          "type": "bool"
        }
      ],
      "name": "ApprovalForAll",
      "type": "event"
    },
    {
      "anonymous": false,
      "inputs": [
        {
          "indexed": true,
          "internalType": "address",
          "name": "from",
          "type": "address"
        },
        {
          "indexed": true,
          "internalType": "address",
          "name": "to",
          "type": "address"
        },
        {
          "indexed": true,
          "internalType": "uint256",
          "name": "tokenId",
          "type": "uint256"
        }
      ],
      "name": "Transfer",
      "type": "event"
    },
    {
      "inputs": [
        {
          "internalType": "address",
          "name": "to",
          "type": "address"
        },
        {
          "internalType": "uint256",
          "name": "tokenId",
          "type": "uint256"
        }
      ],
      "name": "approve",
      "outputs": [],
      "stateMutability": "nonpayable",
      "type": "function"
    },
    {
      "inputs": [
        {
          "internalType": "address",
          "name": "owner",
          "type": "address"
        }
      ],
      "name": "balanceOf",
      "outputs": [
        {
          "internalType": "uint256",
          "name": "",
          "type": "uint256"
        }
      ],
      "stateMutability": "view",
      "type": "function"
    },
    {
      "inputs": [
        {
          "internalType": "uint256",
          "name": "tokenId",
          "type": "uint256"
        }
      ],
      "name": "getApproved",
      "outputs": [
        {
          "internalType": "address",
          "name": "",
          "type": "address"
        }
      ],
      "stateMutability": "view",
      "type": "function"
    },
    {
      "inputs": [
        {
          "internalType": "address",
          "name": "owner",
          "type": "address"
        },
        {
          "internalType": "address",
          "name": "operator",
          "type": "address"
        }
      ],
      "name": "isApprovedForAll",
      "outputs": [
        {
          "internalType": "bool",
          "name": "",
          "type": "bool"
        }
      ],
      "stateMutability": "view",
      "type": "function"
    },
    {
      "inputs": [],
      "name": "mint",
      "outputs": [],
      "stateMutability": "nonpayable",
      "type": "function"
    },
    {
      "inputs": [],
      "name": "name",
      "outputs": [
        {
          "internalType": "string",
          "name": "",
          "type": "string"
        }
      ],
      "stateMutability": "view",
      "type": "function"
    },
    {
      "inputs": [
        {
          "internalType": "uint256",
          "name": "tokenId",
          "type": "uint256"
        }
      ],
      "name": "ownerOf",
      "outputs": [
        {
          "internalType": "address",
          "name": "",
          "type": "address"
        }
      ],
      "stateMutability": "view",
      "type": "function"
    },
    {
      "inputs": [
        {
          "internalType": "address",
          "name": "from",
          "type": "address"
        },
        {
          "internalType": "address",
          "name": "to",
          "type": "address"
        },
        {
          "internalType": "uint256",
          "name": "tokenId",
          "type": "uint256"
        }
      ],
      "name": "safeTransferFrom",
      "outputs": [],
      "stateMutability": "nonpayable",
      "type": "function"
    },
    {
      "inputs": [
        {
          "internalType": "address",
          "name": "from",
          "type": "address"
        },
        {
          "internalType": "address",
          "name": "to",
          "type": "address"
        },
        {
          "internalType": "uint256",
          "name": "tokenId",
          "type": "uint256"
        },
        {
          "internalType": "bytes",
          "name": "data",
          "type": "bytes"
        }
      ],
      "name": "safeTransferFrom",
      "outputs": [],
      "stateMutability": "nonpayable",
      "type": "function"
    },
    {
      "inputs": [
        {
          "internalType": "address",
          "name": "operator",
          "type": "address"
        },
        {
          "internalType": "bool",
          "name": "approved",
          "type": "bool"
        }
      ],
      "name": "setApprovalForAll",
      "outputs": [],
      "stateMutability": "nonpayable",
      "type": "function"
    },
    {
      "inputs": [
        {
          "internalType": "bytes4",
          "name": "interfaceId",
          "type": "bytes4"
        }
      ],
      "name": "supportsInterface",
      "outputs": [
        {
          "internalType": "bool",
          "name": "",
          "type": "bool"
        }
      ],
      "stateMutability": "view",
      "type": "function"
    },
    {
      "inputs": [],
      "name": "symbol",
      "outputs": [
        {
          "internalType": "string",
          "name": "",
          "type": "string"
        }
      ],
      "stateMutability": "view",
      "type": "function"
    },
    {
      "inputs": [],
      "name": "tokenCounter",
      "outputs": [
        {
          "internalType": "uint256",
          "name": "",
          "type": "uint256"
        }
      ],
      "stateMutability": "view",
      "type": "function"
    },
    {
      "inputs": [
        {
          "internalType": "uint256",
          "name": "tokenId",
          "type": "uint256"
        }
      ],
      "name": "tokenURI",
      "outputs": [
        {
          "internalType": "string",
          "name": "",
          "type": "string"
        }
      ],
      "stateMutability": "view",
      "type": "function"
    },
    {
      "inputs": [
        {
          "internalType": "address",
          "name": "from",
          "type": "address"
        },
        {
          "internalType": "address",
          "name": "to",
          "type": "address"
        },
        {
          "internalType": "uint256",
          "name": "tokenId",
          "type": "uint256"
        }
      ],
      "name": "transferFrom",
      "outputs": [],
      "stateMutability": "nonpayable",
      "type": "function"
    }
  ],
  "bytecode": {
    "object": "0x60806040523480156200001157600080fd5b506040518060400160405280600d81526020016c109bdc995908185c19480c8c0d609a1b8152506040518060400160405280600e81526020016d109bdc995908105c194808cc8c0d60921b81525081600090816200007091906200012d565b5060016200007f82826200012d565b505050620001f9565b634e487b7160e01b600052604160045260246000fd5b600181811c90821680620000b357607f821691505b602082108103620000d457634e487b7160e01b600052602260045260246000fd5b50919050565b601f8211156200012857600081815260208120601f850160051c81016020861015620001035750805b601f850160051c820191505b8181101562000124578281556001016200010f565b5050505b505050565b81516001600160401b0381111562000149576200014962000088565b62000161816200015a84546200009e565b84620000da565b602080601f831160018114620001995760008415620001805750858301515b600019600386901b1c1916600185901b17855562000124565b600085815260208120601f198616915b82811015620001ca57888601518255948401946001909101908401620001a9565b5085821015620001e95787850151600019600388901b60f8161c191681555b5050505050600190811b01905550565b6113f880620002096000396000f3fe608060405234801561001057600080fd5b50600436106100f55760003560e01c80636352211e11610097578063b88d4fde11610066578063b88d4fde146101f4578063c87b56dd14610207578063d082e3811461021a578063e985e9c51461022357600080fd5b80636352211e146101a557806370a08231146101b857806395d89b41146101d9578063a22cb465146101e157600080fd5b8063095ea7b3116100d3578063095ea7b3146101625780631249c58b1461017757806323b872dd1461017f57806342842e0e1461019257600080fd5b806301ffc9a7146100fa57806306fdde0314610122578063081812fc14610137575b600080fd5b61010d610108366004610f04565b610236565b60405190151581526020015b60405180910390f35b61012a610288565b6040516101199190610f71565b61014a610145366004610f84565b61031a565b6040516001600160a01b039091168152602001610119565b610175610170366004610fb9565b610341565b005b61017561045b565b61017561018d366004610fe3565b610483565b6101756101a0366004610fe3565b6104b4565b61014a6101b3366004610f84565b6104cf565b6101cb6101c636600461101f565b61052f565b604051908152602001610119565b61012a6105b5565b6101756101ef36600461103a565b6105c4565b61017561020236600461108c565b6105d3565b61012a610215366004610f84565b61060b565b6101cb60065481565b61010d610231366004611168565b610672565b60006001600160e01b031982166380ac58cd60e01b148061026757506001600160e01b03198216635b5e139f60e01b145b8061028257506301ffc9a760e01b6001600160e01b03198316145b92915050565b6060600080546102979061119b565b80601f01602080910402602001604051908101604052809291908181526020018280546102c39061119b565b80156103105780601f106102e557610100808354040283529160200191610310565b820191906000526020600020905b8154815290600101906020018083116102f357829003601f168201915b5050505050905090565b6000610325826106a0565b506000908152600460205260409020546001600160a01b031690565b600061034c826104cf565b9050806001600160a01b0316836001600160a01b0316036103be5760405162461bcd60e51b815260206004820152602160248201527f4552433732313a20617070726f76616c20746f2063757272656e74206f776e656044820152603960f91b60648201526084015b60405180910390fd5b336001600160a01b03821614806103da57506103da8133610672565b61044c5760405162461bcd60e51b815260206004820152603d60248201527f4552433732313a20617070726f76652063616c6c6572206973206e6f7420746f60448201527f6b656e206f776e6572206f7220617070726f76656420666f7220616c6c00000060648201526084016103b5565b6104568383610702565b505050565b60016006600082825461046e91906111eb565b9250508190555061048133600654610770565b565b61048d3382610909565b6104a95760405162461bcd60e51b81526004016103b5906111fe565b610456838383610968565b610456838383604051806020016040528060008152506105d3565b6000818152600260205260408120546001600160a01b0316806102825760405162461bcd60e51b8152602060048201526018602482015277115490cdcc8c4e881a5b9d985b1a59081d1bdad95b88125160421b60448201526064016103b5565b60006001600160a01b0382166105995760405162461bcd60e51b815260206004820152602960248201527f4552433732313a2061646472657373207a65726f206973206e6f7420612076616044820152683634b21037bbb732b960b91b60648201526084016103b5565b506001600160a01b031660009081526003602052604090205490565b6060600180546102979061119b565b6105cf338383610ad9565b5050565b6105dd3383610909565b6105f95760405162461bcd60e51b81526004016103b5906111fe565b61060584848484610ba7565b50505050565b6060610616826106a0565b6000610620610bda565b90506000815111610640576040518060200160405280600081525061066b565b8061064a84610bfa565b60405160200161065b92919061124b565b6040516020818303038152906040525b9392505050565b6001600160a01b03918216600090815260056020908152604080832093909416825291909152205460ff1690565b6000818152600260205260409020546001600160a01b03166106ff5760405162461bcd60e51b8152602060048201526018602482015277115490cdcc8c4e881a5b9d985b1a59081d1bdad95b88125160421b60448201526064016103b5565b50565b600081815260046020526040902080546001600160a01b0319166001600160a01b0384169081179091558190610737826104cf565b6001600160a01b03167f8c5be1e5ebec7d5bd14f71427d1e84f3dd0314c0f7b2291e5b200ac8c7c3b92560405160405180910390a45050565b6001600160a01b0382166107c65760405162461bcd60e51b815260206004820181905260248201527f4552433732313a206d696e7420746f20746865207a65726f206164647265737360448201526064016103b5565b6000818152600260205260409020546001600160a01b03161561082b5760405162461bcd60e51b815260206004820152601c60248201527f4552433732313a20746f6b656e20616c7265616479206d696e7465640000000060448201526064016103b5565b610839600083836001610c8d565b6000818152600260205260409020546001600160a01b03161561089e5760405162461bcd60e51b815260206004820152601c60248201527f4552433732313a20746f6b656e20616c7265616479206d696e7465640000000060448201526064016103b5565b6001600160a01b038216600081815260036020908152604080832080546001019055848352600290915280822080546001600160a01b0319168417905551839291907fddf252ad1be2c89b69c2b068fc378daa952ba7f163c4a11628f55a4df523b3ef908290a45050565b600080610915836104cf565b9050806001600160a01b0316846001600160a01b0316148061093c575061093c8185610672565b806109605750836001600160a01b03166109558461031a565b6001600160a01b0316145b949350505050565b826001600160a01b031661097b826104cf565b6001600160a01b0316146109a15760405162461bcd60e51b81526004016103b59061127a565b6001600160a01b038216610a035760405162461bcd60e51b8152602060048201526024808201527f4552433732313a207472616e7366657220746f20746865207a65726f206164646044820152637265737360e01b60648201526084016103b5565b610a108383836001610c8d565b826001600160a01b0316610a23826104cf565b6001600160a01b031614610a495760405162461bcd60e51b81526004016103b59061127a565b600081815260046020908152604080832080546001600160a01b03199081169091556001600160a01b0387811680865260038552838620805460001901905590871680865283862080546001019055868652600290945282852080549092168417909155905184937fddf252ad1be2c89b69c2b068fc378daa952ba7f163c4a11628f55a4df523b3ef91a4505050565b816001600160a01b0316836001600160a01b031603610b3a5760405162461bcd60e51b815260206004820152601960248201527f4552433732313a20617070726f766520746f2063616c6c65720000000000000060448201526064016103b5565b6001600160a01b03838116600081815260056020908152604080832094871680845294825291829020805460ff191686151590811790915591519182527f17307eab39ab6107e8899845ad3d59bd9653f200f220920489ca2b5937696c31910160405180910390a3505050565b610bb2848484610968565b610bbe84848484610d15565b6106055760405162461bcd60e51b81526004016103b5906112bf565b606060405180608001604052806044815260200161137f60449139905090565b60606000610c0783610e16565b600101905060008167ffffffffffffffff811115610c2757610c27611076565b6040519080825280601f01601f191660200182016040528015610c51576020820181803683370190505b5090508181016020015b600019016f181899199a1a9b1b9c1cb0b131b232b360811b600a86061a8153600a8504945084610c5b57509392505050565b6001811115610605576001600160a01b03841615610cd3576001600160a01b03841660009081526003602052604081208054839290610ccd908490611311565b90915550505b6001600160a01b03831615610605576001600160a01b03831660009081526003602052604081208054839290610d0a9084906111eb565b909155505050505050565b60006001600160a01b0384163b15610e0b57604051630a85bd0160e11b81526001600160a01b0385169063150b7a0290610d59903390899088908890600401611324565b6020604051808303816000875af1925050508015610d94575060408051601f3d908101601f19168201909252610d9191810190611361565b60015b610df1573d808015610dc2576040519150601f19603f3d011682016040523d82523d6000602084013e610dc7565b606091505b508051600003610de95760405162461bcd60e51b81526004016103b5906112bf565b805181602001fd5b6001600160e01b031916630a85bd0160e11b149050610960565b506001949350505050565b60008072184f03e93ff9f4daa797ed6e38ed64bf6a1f0160401b8310610e555772184f03e93ff9f4daa797ed6e38ed64bf6a1f0160401b830492506040015b6d04ee2d6d415b85acef81000000008310610e81576d04ee2d6d415b85acef8100000000830492506020015b662386f26fc100008310610e9f57662386f26fc10000830492506010015b6305f5e1008310610eb7576305f5e100830492506008015b6127108310610ecb57612710830492506004015b60648310610edd576064830492506002015b600a83106102825760010192915050565b6001600160e01b0319811681146106ff57600080fd5b600060208284031215610f1657600080fd5b813561066b81610eee565b60005b83811015610f3c578181015183820152602001610f24565b50506000910152565b60008151808452610f5d816020860160208601610f21565b601f01601f19169290920160200192915050565b60208152600061066b6020830184610f45565b600060208284031215610f9657600080fd5b5035919050565b80356001600160a01b0381168114610fb457600080fd5b919050565b60008060408385031215610fcc57600080fd5b610fd583610f9d565b946020939093013593505050565b600080600060608486031215610ff857600080fd5b61100184610f9d565b925061100f60208501610f9d565b9150604084013590509250925092565b60006020828403121561103157600080fd5b61066b82610f9d565b6000806040838503121561104d57600080fd5b61105683610f9d565b91506020830135801515811461106b57600080fd5b809150509250929050565b634e487b7160e01b600052604160045260246000fd5b600080600080608085870312156110a257600080fd5b6110ab85610f9d565b93506110b960208601610f9d565b925060408501359150606085013567ffffffffffffffff808211156110dd57600080fd5b818701915087601f8301126110f157600080fd5b81358181111561110357611103611076565b604051601f8201601f19908116603f0116810190838211818310171561112b5761112b611076565b816040528281528a602084870101111561114457600080fd5b82602086016020830137600060208483010152809550505050505092959194509250565b6000806040838503121561117b57600080fd5b61118483610f9d565b915061119260208401610f9d565b90509250929050565b600181811c908216806111af57607f821691505b6020821081036111cf57634e487b7160e01b600052602260045260246000fd5b50919050565b634e487b7160e01b600052601160045260246000fd5b80820180821115610282576102826111d5565b6020808252602d908201527f4552433732313a2063616c6c6572206973206e6f7420746f6b656e206f776e6560408201526c1c881bdc88185c1c1c9bdd9959609a1b606082015260800190565b6000835161125d818460208801610f21565b835190830190611271818360208801610f21565b01949350505050565b60208082526025908201527f4552433732313a207472616e736665722066726f6d20696e636f72726563742060408201526437bbb732b960d91b606082015260800190565b60208082526032908201527f4552433732313a207472616e7366657220746f206e6f6e20455243373231526560408201527131b2b4bb32b91034b6b83632b6b2b73a32b960711b606082015260800190565b81810381811115610282576102826111d5565b6001600160a01b038581168252841660208201526040810183905260806060820181905260009061135790830184610f45565b9695505050505050565b60006020828403121561137357600080fd5b815161066b81610eee56fe68747470733a2f2f697066732e696f2f697066732f2f516d64527062554338546a4a316239745a575052784276624373674a69735745754e346463584657344d76726838a2646970667358221220b5af4592d3a29df53c1ead988dc5aad61e1658be5a0a0ce3a3e0795dc253885f64736f6c63430008110033",
    "linkReferences": {}
  },
  "methodIdentifiers": {
    "approve(address,uint256)": "095ea7b3",
    "balanceOf(address)": "70a08231",
    "getApproved(uint256)": "081812fc",
    "isApprovedForAll(address,address)": "e985e9c5",
    "mint()": "1249c58b",
    "name()": "06fdde03",
    "ownerOf(uint256)": "6352211e",
    "safeTransferFrom(address,address,uint256)": "42842e0e",
    "safeTransferFrom(address,address,uint256,bytes)": "b88d4fde",
    "setApprovalForAll(address,bool)": "a22cb465",
    "supportsInterface(bytes4)": "01ffc9a7",
    "symbol()": "95d89b41",
    "tokenCounter()": "d082e381",
    "tokenURI(uint256)": "c87b56dd",
    "transferFrom(address,address,uint256)": "23b872dd"
  },
  "id": 27
}