{
  "abi": [
    {
      "inputs": [
        {
          "internalType": "uint64",
          "name": "_fee",
          "type": "uint64"
        }
      ],
      "stateMutability": "nonpayable",
      "type": "constructor"
    },
    {
      "inputs": [],
      "name": "NotApprovedForMarketplace",
      "type": "error"
    },
    {
      "anonymous": false,
      "inputs": [
        {
          "indexed": false,
          "internalType": "uint256",
          "name": "id",
          "type": "uint256"
        },
        {
          "indexed": false,
          "internalType": "address",
          "name": "nft",
          "type": "address"
        },
        {
          "indexed": false,
          "internalType": "uint256",
          "name": "tokenId",
          "type": "uint256"
        },
        {
          "indexed": false,
          "internalType": "uint256",
          "name": "price",
          "type": "uint256"
        },
        {
          "indexed": false,
          "internalType": "address",
          "name": "seller",
          "type": "address"
        }
      ],
      "name": "listed",
      "type": "event"
    },
    {
      "inputs": [
        {
          "internalType": "uint256",
          "name": "_itemId",
          "type": "uint256"
        }
      ],
      "name": "buyNFT",
      "outputs": [],
      "stateMutability": "payable",
      "type": "function"
    },
    {
      "inputs": [
        {
          "internalType": "uint256",
          "name": "_itemId",
          "type": "uint256"
        }
      ],
      "name": "cancelSale",
      "outputs": [],
      "stateMutability": "nonpayable",
      "type": "function"
    },
    {
      "inputs": [],
      "name": "fee",
      "outputs": [
        {
          "internalType": "uint64",
          "name": "",
          "type": "uint64"
        }
      ],
      "stateMutability": "view",
      "type": "function"
    },
    {
      "inputs": [
        {
          "internalType": "uint256",
          "name": "_itemId",
          "type": "uint256"
        }
      ],
      "name": "getItems",
      "outputs": [
        {
          "components": [
            {
              "internalType": "uint256",
              "name": "id",
              "type": "uint256"
            },
            {
              "internalType": "address",
              "name": "nft",
              "type": "address"
            },
            {
              "internalType": "uint256",
              "name": "tokenId",
              "type": "uint256"
            },
            {
              "internalType": "address payable",
              "name": "seller",
              "type": "address"
            },
            {
              "internalType": "bool",
              "name": "sold",
              "type": "bool"
            },
            {
              "internalType": "uint256",
              "name": "price",
              "type": "uint256"
            },
            {
              "internalType": "string",
              "name": "name",
              "type": "string"
            },
            {
              "internalType": "string",
              "name": "description",
              "type": "string"
            },
            {
              "internalType": "string",
              "name": "image",
              "type": "string"
            }
          ],
          "internalType": "struct marketPlace.item",
          "name": "",
          "type": "tuple"
        }
      ],
      "stateMutability": "view",
      "type": "function"
    },
    {
      "inputs": [],
      "name": "itemCount",
      "outputs": [
        {
          "internalType": "uint256",
          "name": "",
          "type": "uint256"
        }
      ],
      "stateMutability": "view",
      "type": "function"
    },
    {
      "inputs": [
        {
          "internalType": "uint256",
          "name": "",
          "type": "uint256"
        }
      ],
      "name": "items",
      "outputs": [
        {
          "internalType": "uint256",
          "name": "id",
          "type": "uint256"
        },
        {
          "internalType": "address",
          "name": "nft",
          "type": "address"
        },
        {
          "internalType": "uint256",
          "name": "tokenId",
          "type": "uint256"
        },
        {
          "internalType": "address payable",
          "name": "seller",
          "type": "address"
        },
        {
          "internalType": "bool",
          "name": "sold",
          "type": "bool"
        },
        {
          "internalType": "uint256",
          "name": "price",
          "type": "uint256"
        },
        {
          "internalType": "string",
          "name": "name",
          "type": "string"
        },
        {
          "internalType": "string",
          "name": "description",
          "type": "string"
        },
        {
          "internalType": "string",
          "name": "image",
          "type": "string"
        }
      ],
      "stateMutability": "view",
      "type": "function"
    },
    {
      "inputs": [
        {
          "internalType": "address",
          "name": "_nft",
          "type": "address"
        },
        {
          "internalType": "uint256",
          "name": "_tokenId",
          "type": "uint256"
        },
        {
          "internalType": "uint256",
          "name": "_price",
          "type": "uint256"
        },
        {
          "internalType": "string",
          "name": "_name",
          "type": "string"
        },
        {
          "internalType": "string",
          "name": "_description",
          "type": "string"
        },
        {
          "internalType": "string",
          "name": "_image",
          "type": "string"
        }
      ],
      "name": "listNFT",
      "outputs": [],
      "stateMutability": "nonpayable",
      "type": "function"
    },
    {
      "inputs": [],
      "name": "owner",
      "outputs": [
        {
          "internalType": "address payable",
          "name": "",
          "type": "address"
        }
      ],
      "stateMutability": "view",
      "type": "function"
    },
    {
      "inputs": [],
      "name": "withdrawFunds",
      "outputs": [],
      "stateMutability": "nonpayable",
      "type": "function"
    }
  ],
  "bytecode": {
    "object": "0x60c060405234801561001057600080fd5b5060405161162338038061162383398101604081905261002f91610049565b6001600055336080526001600160401b031660a052610079565b60006020828403121561005b57600080fd5b81516001600160401b038116811461007257600080fd5b9392505050565b60805160a0516115696100ba600039600081816101de015261045a01526000818161013d015281816102240152818161025b01526104c001526115696000f3fe6080604052600436106100865760003560e01c8063796c5e9411610059578063796c5e94146100fe5780638da5cb5b1461012b578063bd94b00514610177578063bfb231d214610197578063ddca3f43146101cc57600080fd5b806324600fc31461008b57806351ed8288146100a25780635af6e2a8146100b55780636bfb0d01146100d5575b600080fd5b34801561009757600080fd5b506100a0610219565b005b6100a06100b036600461103c565b6102a6565b3480156100c157600080fd5b506100a06100d036600461110d565b6105d1565b3480156100e157600080fd5b506100eb60015481565b6040519081526020015b60405180910390f35b34801561010a57600080fd5b5061011e61011936600461103c565b610954565b6040516100f59190611200565b34801561013757600080fd5b5061015f7f000000000000000000000000000000000000000000000000000000000000000081565b6040516001600160a01b0390911681526020016100f5565b34801561018357600080fd5b506100a061019236600461103c565b610be4565b3480156101a357600080fd5b506101b76101b236600461103c565b610d9f565b6040516100f5999897969594939291906112c7565b3480156101d857600080fd5b506102007f000000000000000000000000000000000000000000000000000000000000000081565b60405167ffffffffffffffff90911681526020016100f5565b336001600160a01b037f0000000000000000000000000000000000000000000000000000000000000000161461024e57600080fd5b6040516001600160a01b037f000000000000000000000000000000000000000000000000000000000000000016904780156108fc02916000818181858888f193505050501580156102a3573d6000803e3d6000fd5b50565b6102ae610f95565b600081815260026020908152604080832060039092529091205482919015806102e4575060008281526003602052604090205443105b6103265760405162461bcd60e51b815260206004820152600e60248201526d6572726f7220736563757269747960901b60448201526064015b60405180910390fd5b6000828152600360208181526040808420439055868452600290915290912090810154600160a01b900460ff16156103945760405162461bcd60e51b81526020600482015260116024820152701a5d195b48185b1c9958591e481cdbdb19607a1b604482015260640161031d565b806004015434146103dc5760405162461bcd60e51b8152602060048201526012602482015271696e73756666696369656e742066756e647360701b604482015260640161031d565b600181015460038201546002830154604051632142170760e11b81526001600160a01b03928316600482015233602482015260448101919091529116906342842e0e90606401600060405180830381600087803b15801561043c57600080fd5b505af1158015610450573d6000803e3d6000fd5b50505050600060647f000000000000000000000000000000000000000000000000000000000000000067ffffffffffffffff168360040154610492919061135f565b61049c919061137c565b905060008183600401546104b0919061139e565b6040519091506001600160a01b037f0000000000000000000000000000000000000000000000000000000000000000169083156108fc029084906000818181858888f19350505050158015610509573d6000803e3d6000fd5b5060038301546040516001600160a01b039091169082156108fc029083906000818181858888f19350505050158015610546573d6000803e3d6000fd5b50600086815260036020818152604080842084905560029182905283208381556001810180546001600160a01b031916905590810183905590810180546001600160a81b031916905560048101829055906105a46005830182610fee565b6105b2600683016000610fee565b6105c0600783016000610fee565b505050505050506102a36001600055565b6105d9610f95565b600084116106295760405162461bcd60e51b815260206004820152601c60248201527f7072696365206d7573742062652067726561746572207468616e203000000000604482015260640161031d565b6040516331a9108f60e11b815260048101869052869033906001600160a01b03831690636352211e90602401602060405180830381865afa158015610672573d6000803e3d6000fd5b505050506040513d601f19601f8201168201806040525081019061069691906113b1565b6001600160a01b0316036108ef5760405163020604bf60e21b81526004810187905230906001600160a01b0383169063081812fc90602401602060405180830381865afa1580156106eb573d6000803e3d6000fd5b505050506040513d601f19601f8201168201806040525081019061070f91906113b1565b6001600160a01b03161461073657604051634be3a2c560e01b815260040160405180910390fd5b60018054906000610746836113d5565b91905055506040518061012001604052806001548152602001886001600160a01b03168152602001878152602001336001600160a01b03168152602001600015158152602001868152602001858152602001848152602001838152506002600060015481526020019081526020016000206000820151816000015560208201518160010160006101000a8154816001600160a01b0302191690836001600160a01b031602179055506040820151816002015560608201518160030160006101000a8154816001600160a01b0302191690836001600160a01b0316021790555060808201518160030160146101000a81548160ff02191690831515021790555060a0820151816004015560c08201518160050190816108649190611473565b5060e082015160068201906108799082611473565b50610100820151600782019061088f9082611473565b5050600154604080519182526001600160a01b038a1660208301528101889052606081018790523360808201527fe8918c0bb3ad097d73642c4741b470855dda5db5e757be3f75cf970e7a3c28f4915060a00160405180910390a1610941565b60405162461bcd60e51b815260206004820152602160248201527f796f7520617265206e6f7420746865206f776e6572206f662074686973204e466044820152601560fa1b606482015260840161031d565b5061094c6001600055565b505050505050565b6109b76040518061012001604052806000815260200160006001600160a01b031681526020016000815260200160006001600160a01b03168152602001600015158152602001600081526020016060815260200160608152602001606081525090565b6000828152600260208181526040928390208351610120810185528154815260018201546001600160a01b0390811693820193909352928101549383019390935260038301549081166060830152600160a01b900460ff1615156080820152600482015460a0820152600582018054839160c0840191610a36906113ee565b80601f0160208091040260200160405190810160405280929190818152602001828054610a62906113ee565b8015610aaf5780601f10610a8457610100808354040283529160200191610aaf565b820191906000526020600020905b815481529060010190602001808311610a9257829003601f168201915b50505050508152602001600682018054610ac8906113ee565b80601f0160208091040260200160405190810160405280929190818152602001828054610af4906113ee565b8015610b415780601f10610b1657610100808354040283529160200191610b41565b820191906000526020600020905b815481529060010190602001808311610b2457829003601f168201915b50505050508152602001600782018054610b5a906113ee565b80601f0160208091040260200160405190810160405280929190818152602001828054610b86906113ee565b8015610bd35780601f10610ba857610100808354040283529160200191610bd3565b820191906000526020600020905b815481529060010190602001808311610bb657829003601f168201915b505050505081525050915050919050565b610bec610f95565b60008181526002602090815260408083206003909252909120548291901580610c22575060008281526003602052604090205443105b610c5f5760405162461bcd60e51b815260206004820152600e60248201526d6572726f7220736563757269747960901b604482015260640161031d565b6000828152600360208181526040808420439055868452600290915290912090810154600160a01b900460ff1615610ccd5760405162461bcd60e51b81526020600482015260116024820152701a5d195b48185b1c9958591e481cdbdb19607a1b604482015260640161031d565b60038101546001600160a01b03163314610d225760405162461bcd60e51b81526020600482015260166024820152753cb7ba9030b932903737ba103a34329039b2b63632b960511b604482015260640161031d565b600084815260026020819052604082208281556001810180546001600160a01b03191690559081018290556003810180546001600160a81b03191690556004810182905590610d746005830182610fee565b610d82600683016000610fee565b610d90600783016000610fee565b50505050506102a36001600055565b600260208190526000918252604090912080546001820154928201546003830154600484015460058501805494966001600160a01b0390811696949590841694600160a01b90940460ff16939190610df6906113ee565b80601f0160208091040260200160405190810160405280929190818152602001828054610e22906113ee565b8015610e6f5780601f10610e4457610100808354040283529160200191610e6f565b820191906000526020600020905b815481529060010190602001808311610e5257829003601f168201915b505050505090806006018054610e84906113ee565b80601f0160208091040260200160405190810160405280929190818152602001828054610eb0906113ee565b8015610efd5780601f10610ed257610100808354040283529160200191610efd565b820191906000526020600020905b815481529060010190602001808311610ee057829003601f168201915b505050505090806007018054610f12906113ee565b80601f0160208091040260200160405190810160405280929190818152602001828054610f3e906113ee565b8015610f8b5780601f10610f6057610100808354040283529160200191610f8b565b820191906000526020600020905b815481529060010190602001808311610f6e57829003601f168201915b5050505050905089565b600260005403610fe75760405162461bcd60e51b815260206004820152601f60248201527f5265656e7472616e637947756172643a207265656e7472616e742063616c6c00604482015260640161031d565b6002600055565b508054610ffa906113ee565b6000825580601f1061100a575050565b601f0160209004906000526020600020908101906102a391905b808211156110385760008155600101611024565b5090565b60006020828403121561104e57600080fd5b5035919050565b6001600160a01b03811681146102a357600080fd5b634e487b7160e01b600052604160045260246000fd5b600082601f83011261109157600080fd5b813567ffffffffffffffff808211156110ac576110ac61106a565b604051601f8301601f19908116603f011681019082821181831017156110d4576110d461106a565b816040528381528660208588010111156110ed57600080fd5b836020870160208301376000602085830101528094505050505092915050565b60008060008060008060c0878903121561112657600080fd5b863561113181611055565b95506020870135945060408701359350606087013567ffffffffffffffff8082111561115c57600080fd5b6111688a838b01611080565b9450608089013591508082111561117e57600080fd5b61118a8a838b01611080565b935060a08901359150808211156111a057600080fd5b506111ad89828a01611080565b9150509295509295509295565b6000815180845260005b818110156111e0576020818501810151868301820152016111c4565b506000602082860101526020601f19601f83011685010191505092915050565b60208152815160208201526000602083015161122760408401826001600160a01b03169052565b5060408301516060830152606083015161124c60808401826001600160a01b03169052565b50608083015180151560a08401525060a083015160c083015260c08301516101208060e08501526112816101408501836111ba565b915060e0850151601f196101008187860301818801526112a185846111ba565b9088015187820390920184880152935090506112bd83826111ba565b9695505050505050565b8981526001600160a01b0389811660208301526040820189905287166060820152851515608082015260a0810185905261012060c08201819052600090611310838201876111ba565b905082810360e084015261132481866111ba565b905082810361010084015261133981856111ba565b9c9b505050505050505050505050565b634e487b7160e01b600052601160045260246000fd5b808202811582820484141761137657611376611349565b92915050565b60008261139957634e487b7160e01b600052601260045260246000fd5b500490565b8181038181111561137657611376611349565b6000602082840312156113c357600080fd5b81516113ce81611055565b9392505050565b6000600182016113e7576113e7611349565b5060010190565b600181811c9082168061140257607f821691505b60208210810361142257634e487b7160e01b600052602260045260246000fd5b50919050565b601f82111561146e57600081815260208120601f850160051c8101602086101561144f5750805b601f850160051c820191505b8181101561094c5782815560010161145b565b505050565b815167ffffffffffffffff81111561148d5761148d61106a565b6114a18161149b84546113ee565b84611428565b602080601f8311600181146114d657600084156114be5750858301515b600019600386901b1c1916600185901b17855561094c565b600085815260208120601f198616915b82811015611505578886015182559484019460019091019084016114e6565b50858210156115235787850151600019600388901b60f8161c191681555b5050505050600190811b0190555056fea2646970667358221220d73d3b77d89eba9c224ed86348f075c089b39f06bc838a74e0127336ee0168da64736f6c63430008110033",
    "linkReferences": {}
  },
  "methodIdentifiers": {
    "buyNFT(uint256)": "51ed8288",
    "cancelSale(uint256)": "bd94b005",
    "fee()": "ddca3f43",
    "getItems(uint256)": "796c5e94",
    "itemCount()": "6bfb0d01",
    "items(uint256)": "bfb231d2",
    "listNFT(address,uint256,uint256,string,string,string)": "5af6e2a8",
    "owner()": "8da5cb5b",
    "withdrawFunds()": "24600fc3"
  },
  "id": 28
}