{
  "abi": [
    {
      "inputs": [
        {
          "internalType": "uint64",
          "name": "_fee",
          "type": "uint64"
        }
      ],
      "stateMutability": "nonpayable",
      "type": "constructor"
    },
    {
      "inputs": [],
      "name": "NotApprovedForMarketplace",
      "type": "error"
    },
    {
      "anonymous": false,
      "inputs": [
        {
          "indexed": false,
          "internalType": "uint256",
          "name": "id",
          "type": "uint256"
        },
        {
          "indexed": false,
          "internalType": "address",
          "name": "nft",
          "type": "address"
        },
        {
          "indexed": false,
          "internalType": "uint256",
          "name": "tokenId",
          "type": "uint256"
        },
        {
          "indexed": false,
          "internalType": "uint256",
          "name": "price",
          "type": "uint256"
        },
        {
          "indexed": false,
          "internalType": "address",
          "name": "seller",
          "type": "address"
        }
      ],
      "name": "listed",
      "type": "event"
    },
    {
      "inputs": [
        {
          "internalType": "uint256",
          "name": "_itemId",
          "type": "uint256"
        }
      ],
      "name": "buyNFT",
      "outputs": [],
      "stateMutability": "payable",
      "type": "function"
    },
    {
      "inputs": [
        {
          "internalType": "uint256",
          "name": "_itemId",
          "type": "uint256"
        }
      ],
      "name": "cancelSale",
      "outputs": [],
      "stateMutability": "nonpayable",
      "type": "function"
    },
    {
      "inputs": [],
      "name": "fee",
      "outputs": [
        {
          "internalType": "uint64",
          "name": "",
          "type": "uint64"
        }
      ],
      "stateMutability": "view",
      "type": "function"
    },
    {
      "inputs": [
        {
          "internalType": "uint256",
          "name": "_itemId",
          "type": "uint256"
        }
      ],
      "name": "getItems",
      "outputs": [
        {
          "components": [
            {
              "internalType": "uint256",
              "name": "id",
              "type": "uint256"
            },
            {
              "internalType": "address",
              "name": "nft",
              "type": "address"
            },
            {
              "internalType": "uint256",
              "name": "tokenId",
              "type": "uint256"
            },
            {
              "internalType": "address payable",
              "name": "seller",
              "type": "address"
            },
            {
              "internalType": "bool",
              "name": "sold",
              "type": "bool"
            },
            {
              "internalType": "uint256",
              "name": "price",
              "type": "uint256"
            },
            {
              "internalType": "string",
              "name": "name",
              "type": "string"
            },
            {
              "internalType": "string",
              "name": "description",
              "type": "string"
            },
            {
              "internalType": "string",
              "name": "image",
              "type": "string"
            }
          ],
          "internalType": "struct marketPlace.item",
          "name": "",
          "type": "tuple"
        }
      ],
      "stateMutability": "view",
      "type": "function"
    },
    {
      "inputs": [],
      "name": "itemCount",
      "outputs": [
        {
          "internalType": "uint256",
          "name": "",
          "type": "uint256"
        }
      ],
      "stateMutability": "view",
      "type": "function"
    },
    {
      "inputs": [
        {
          "internalType": "uint256",
          "name": "",
          "type": "uint256"
        }
      ],
      "name": "items",
      "outputs": [
        {
          "internalType": "uint256",
          "name": "id",
          "type": "uint256"
        },
        {
          "internalType": "address",
          "name": "nft",
          "type": "address"
        },
        {
          "internalType": "uint256",
          "name": "tokenId",
          "type": "uint256"
        },
        {
          "internalType": "address payable",
          "name": "seller",
          "type": "address"
        },
        {
          "internalType": "bool",
          "name": "sold",
          "type": "bool"
        },
        {
          "internalType": "uint256",
          "name": "price",
          "type": "uint256"
        },
        {
          "internalType": "string",
          "name": "name",
          "type": "string"
        },
        {
          "internalType": "string",
          "name": "description",
          "type": "string"
        },
        {
          "internalType": "string",
          "name": "image",
          "type": "string"
        }
      ],
      "stateMutability": "view",
      "type": "function"
    },
    {
      "inputs": [
        {
          "internalType": "address",
          "name": "_nft",
          "type": "address"
        },
        {
          "internalType": "uint256",
          "name": "_tokenId",
          "type": "uint256"
        },
        {
          "internalType": "uint256",
          "name": "_price",
          "type": "uint256"
        },
        {
          "internalType": "string",
          "name": "_name",
          "type": "string"
        },
        {
          "internalType": "string",
          "name": "_description",
          "type": "string"
        },
        {
          "internalType": "string",
          "name": "_image",
          "type": "string"
        }
      ],
      "name": "listNFT",
      "outputs": [],
      "stateMutability": "nonpayable",
      "type": "function"
    },
    {
      "inputs": [],
      "name": "owner",
      "outputs": [
        {
          "internalType": "address payable",
          "name": "",
          "type": "address"
        }
      ],
      "stateMutability": "view",
      "type": "function"
    },
    {
      "inputs": [],
      "name": "withdrawFunds",
      "outputs": [],
      "stateMutability": "nonpayable",
      "type": "function"
    }
  ],
  "bytecode": {
    "object": "0x60c060405234801561001057600080fd5b5060405161166b38038061166b83398101604081905261002f91610049565b6001600055336080526001600160401b031660a052610079565b60006020828403121561005b57600080fd5b81516001600160401b038116811461007257600080fd5b9392505050565b60805160a0516115aa6100c1600039600081816101de01528181610398015261049b01526000818161013d015281816102240152818161025b015261050101526115aa6000f3fe6080604052600436106100865760003560e01c8063796c5e9411610059578063796c5e94146100fe5780638da5cb5b1461012b578063bd94b00514610177578063bfb231d214610197578063ddca3f43146101cc57600080fd5b806324600fc31461008b57806351ed8288146100a25780635af6e2a8146100b55780636bfb0d01146100d5575b600080fd5b34801561009757600080fd5b506100a0610219565b005b6100a06100b036600461107d565b6102a6565b3480156100c157600080fd5b506100a06100d036600461114e565b610612565b3480156100e157600080fd5b506100eb60015481565b6040519081526020015b60405180910390f35b34801561010a57600080fd5b5061011e61011936600461107d565b610995565b6040516100f59190611241565b34801561013757600080fd5b5061015f7f000000000000000000000000000000000000000000000000000000000000000081565b6040516001600160a01b0390911681526020016100f5565b34801561018357600080fd5b506100a061019236600461107d565b610c25565b3480156101a357600080fd5b506101b76101b236600461107d565b610de0565b6040516100f599989796959493929190611308565b3480156101d857600080fd5b506102007f000000000000000000000000000000000000000000000000000000000000000081565b60405167ffffffffffffffff90911681526020016100f5565b336001600160a01b037f0000000000000000000000000000000000000000000000000000000000000000161461024e57600080fd5b6040516001600160a01b037f000000000000000000000000000000000000000000000000000000000000000016904780156108fc02916000818181858888f193505050501580156102a3573d6000803e3d6000fd5b50565b6102ae610fd6565b600081815260026020908152604080832060039092529091205482919015806102e4575060008281526003602052604090205443105b6103265760405162461bcd60e51b815260206004820152600e60248201526d6572726f7220736563757269747960901b60448201526064015b60405180910390fd5b6000828152600360208181526040808420439055868452600290915290912090810154600160a01b900460ff16156103945760405162461bcd60e51b81526020600482015260116024820152701a5d195b48185b1c9958591e481cdbdb19607a1b604482015260640161031d565b60647f000000000000000000000000000000000000000000000000000000000000000067ffffffffffffffff1682600401546103d091906113a0565b6103da91906113bd565b341461041d5760405162461bcd60e51b8152602060048201526012602482015271696e73756666696369656e742066756e647360701b604482015260640161031d565b600181015460038201546002830154604051632142170760e11b81526001600160a01b03928316600482015233602482015260448101919091529116906342842e0e90606401600060405180830381600087803b15801561047d57600080fd5b505af1158015610491573d6000803e3d6000fd5b50505050600060647f000000000000000000000000000000000000000000000000000000000000000067ffffffffffffffff1683600401546104d391906113a0565b6104dd91906113bd565b905060008183600401546104f191906113df565b6040519091506001600160a01b037f0000000000000000000000000000000000000000000000000000000000000000169083156108fc029084906000818181858888f1935050505015801561054a573d6000803e3d6000fd5b5060038301546040516001600160a01b039091169082156108fc029083906000818181858888f19350505050158015610587573d6000803e3d6000fd5b50600086815260036020818152604080842084905560029182905283208381556001810180546001600160a01b031916905590810183905590810180546001600160a81b031916905560048101829055906105e5600583018261102f565b6105f360068301600061102f565b61060160078301600061102f565b505050505050506102a36001600055565b61061a610fd6565b6000841161066a5760405162461bcd60e51b815260206004820152601c60248201527f7072696365206d7573742062652067726561746572207468616e203000000000604482015260640161031d565b6040516331a9108f60e11b815260048101869052869033906001600160a01b03831690636352211e90602401602060405180830381865afa1580156106b3573d6000803e3d6000fd5b505050506040513d601f19601f820116820180604052508101906106d791906113f2565b6001600160a01b0316036109305760405163020604bf60e21b81526004810187905230906001600160a01b0383169063081812fc90602401602060405180830381865afa15801561072c573d6000803e3d6000fd5b505050506040513d601f19601f8201168201806040525081019061075091906113f2565b6001600160a01b03161461077757604051634be3a2c560e01b815260040160405180910390fd5b6001805490600061078783611416565b91905055506040518061012001604052806001548152602001886001600160a01b03168152602001878152602001336001600160a01b03168152602001600015158152602001868152602001858152602001848152602001838152506002600060015481526020019081526020016000206000820151816000015560208201518160010160006101000a8154816001600160a01b0302191690836001600160a01b031602179055506040820151816002015560608201518160030160006101000a8154816001600160a01b0302191690836001600160a01b0316021790555060808201518160030160146101000a81548160ff02191690831515021790555060a0820151816004015560c08201518160050190816108a591906114b4565b5060e082015160068201906108ba90826114b4565b5061010082015160078201906108d090826114b4565b5050600154604080519182526001600160a01b038a1660208301528101889052606081018790523360808201527fe8918c0bb3ad097d73642c4741b470855dda5db5e757be3f75cf970e7a3c28f4915060a00160405180910390a1610982565b60405162461bcd60e51b815260206004820152602160248201527f796f7520617265206e6f7420746865206f776e6572206f662074686973204e466044820152601560fa1b606482015260840161031d565b5061098d6001600055565b505050505050565b6109f86040518061012001604052806000815260200160006001600160a01b031681526020016000815260200160006001600160a01b03168152602001600015158152602001600081526020016060815260200160608152602001606081525090565b6000828152600260208181526040928390208351610120810185528154815260018201546001600160a01b0390811693820193909352928101549383019390935260038301549081166060830152600160a01b900460ff1615156080820152600482015460a0820152600582018054839160c0840191610a779061142f565b80601f0160208091040260200160405190810160405280929190818152602001828054610aa39061142f565b8015610af05780601f10610ac557610100808354040283529160200191610af0565b820191906000526020600020905b815481529060010190602001808311610ad357829003601f168201915b50505050508152602001600682018054610b099061142f565b80601f0160208091040260200160405190810160405280929190818152602001828054610b359061142f565b8015610b825780601f10610b5757610100808354040283529160200191610b82565b820191906000526020600020905b815481529060010190602001808311610b6557829003601f168201915b50505050508152602001600782018054610b9b9061142f565b80601f0160208091040260200160405190810160405280929190818152602001828054610bc79061142f565b8015610c145780601f10610be957610100808354040283529160200191610c14565b820191906000526020600020905b815481529060010190602001808311610bf757829003601f168201915b505050505081525050915050919050565b610c2d610fd6565b60008181526002602090815260408083206003909252909120548291901580610c63575060008281526003602052604090205443105b610ca05760405162461bcd60e51b815260206004820152600e60248201526d6572726f7220736563757269747960901b604482015260640161031d565b6000828152600360208181526040808420439055868452600290915290912090810154600160a01b900460ff1615610d0e5760405162461bcd60e51b81526020600482015260116024820152701a5d195b48185b1c9958591e481cdbdb19607a1b604482015260640161031d565b60038101546001600160a01b03163314610d635760405162461bcd60e51b81526020600482015260166024820152753cb7ba9030b932903737ba103a34329039b2b63632b960511b604482015260640161031d565b600084815260026020819052604082208281556001810180546001600160a01b03191690559081018290556003810180546001600160a81b03191690556004810182905590610db5600583018261102f565b610dc360068301600061102f565b610dd160078301600061102f565b50505050506102a36001600055565b600260208190526000918252604090912080546001820154928201546003830154600484015460058501805494966001600160a01b0390811696949590841694600160a01b90940460ff16939190610e379061142f565b80601f0160208091040260200160405190810160405280929190818152602001828054610e639061142f565b8015610eb05780601f10610e8557610100808354040283529160200191610eb0565b820191906000526020600020905b815481529060010190602001808311610e9357829003601f168201915b505050505090806006018054610ec59061142f565b80601f0160208091040260200160405190810160405280929190818152602001828054610ef19061142f565b8015610f3e5780601f10610f1357610100808354040283529160200191610f3e565b820191906000526020600020905b815481529060010190602001808311610f2157829003601f168201915b505050505090806007018054610f539061142f565b80601f0160208091040260200160405190810160405280929190818152602001828054610f7f9061142f565b8015610fcc5780601f10610fa157610100808354040283529160200191610fcc565b820191906000526020600020905b815481529060010190602001808311610faf57829003601f168201915b5050505050905089565b6002600054036110285760405162461bcd60e51b815260206004820152601f60248201527f5265656e7472616e637947756172643a207265656e7472616e742063616c6c00604482015260640161031d565b6002600055565b50805461103b9061142f565b6000825580601f1061104b575050565b601f0160209004906000526020600020908101906102a391905b808211156110795760008155600101611065565b5090565b60006020828403121561108f57600080fd5b5035919050565b6001600160a01b03811681146102a357600080fd5b634e487b7160e01b600052604160045260246000fd5b600082601f8301126110d257600080fd5b813567ffffffffffffffff808211156110ed576110ed6110ab565b604051601f8301601f19908116603f01168101908282118183101715611115576111156110ab565b8160405283815286602085880101111561112e57600080fd5b836020870160208301376000602085830101528094505050505092915050565b60008060008060008060c0878903121561116757600080fd5b863561117281611096565b95506020870135945060408701359350606087013567ffffffffffffffff8082111561119d57600080fd5b6111a98a838b016110c1565b945060808901359150808211156111bf57600080fd5b6111cb8a838b016110c1565b935060a08901359150808211156111e157600080fd5b506111ee89828a016110c1565b9150509295509295509295565b6000815180845260005b8181101561122157602081850181015186830182015201611205565b506000602082860101526020601f19601f83011685010191505092915050565b60208152815160208201526000602083015161126860408401826001600160a01b03169052565b5060408301516060830152606083015161128d60808401826001600160a01b03169052565b50608083015180151560a08401525060a083015160c083015260c08301516101208060e08501526112c26101408501836111fb565b915060e0850151601f196101008187860301818801526112e285846111fb565b9088015187820390920184880152935090506112fe83826111fb565b9695505050505050565b8981526001600160a01b0389811660208301526040820189905287166060820152851515608082015260a0810185905261012060c08201819052600090611351838201876111fb565b905082810360e084015261136581866111fb565b905082810361010084015261137a81856111fb565b9c9b505050505050505050505050565b634e487b7160e01b600052601160045260246000fd5b80820281158282048414176113b7576113b761138a565b92915050565b6000826113da57634e487b7160e01b600052601260045260246000fd5b500490565b818103818111156113b7576113b761138a565b60006020828403121561140457600080fd5b815161140f81611096565b9392505050565b6000600182016114285761142861138a565b5060010190565b600181811c9082168061144357607f821691505b60208210810361146357634e487b7160e01b600052602260045260246000fd5b50919050565b601f8211156114af57600081815260208120601f850160051c810160208610156114905750805b601f850160051c820191505b8181101561098d5782815560010161149c565b505050565b815167ffffffffffffffff8111156114ce576114ce6110ab565b6114e2816114dc845461142f565b84611469565b602080601f83116001811461151757600084156114ff5750858301515b600019600386901b1c1916600185901b17855561098d565b600085815260208120601f198616915b8281101561154657888601518255948401946001909101908401611527565b50858210156115645787850151600019600388901b60f8161c191681555b5050505050600190811b0190555056fea2646970667358221220d020dbc12c83edb6af83790a988e1160d613e786e375b4fb278e84dc4ff51b3364736f6c63430008110033",
    "linkReferences": {}
  },
  "methodIdentifiers": {
    "buyNFT(uint256)": "51ed8288",
    "cancelSale(uint256)": "bd94b005",
    "fee()": "ddca3f43",
    "getItems(uint256)": "796c5e94",
    "itemCount()": "6bfb0d01",
    "items(uint256)": "bfb231d2",
    "listNFT(address,uint256,uint256,string,string,string)": "5af6e2a8",
    "owner()": "8da5cb5b",
    "withdrawFunds()": "24600fc3"
  },
  "id": 28
}